:0D024700120222120235D2AF1201C380FB59
:1001C300AE0DAF0E7C037DE812016E8F09AE0DAF4D
:1001D3000E7C007D6412016E7C007D0A12016E8D1F
:1001E3000AAE0DAF0E7C007D0A12016E7C007D0A03
:1001F30012016E8D0BAE0DAF0E7C007D0A12016EE7
:030203008D0C223D
:100222005389F0438901758A66758CFCC28DD28C24
:03023200D2A9222C
:03000B0002009A56
:10009A00C0E0C0F0C083C082C0D075D000C000C02C
:1000AA0001C002C003C004C005C006C007C28C0557
:1000BA0010E5107002050FC394E8E50F9403402081
:1000CA00C28E750F00751000AF8DEFFEAD8B7C00F0
:1000DA00E42DF50EEC3EF50D758B00758D00D28E74
:1000EA00120110758A66758CFCD28CD007D006D0A6
:1000FA0005D004D003D002D001D000D0D0D082D015
:06010A0083D0F0D0E032CA
:1002350053890F438950E4F58BF58DC28FD28ED249
:02024500AB22EA
:100206003F065B4F666D7D077F6FFF7C395E7971B8
:0C0216007638373E735C0040F7FBFDFEBD
:090254000409000000000108008B
:10011000E50814601E14602B14603D2403704EE447
:10012000F59090021E93F5A0E50990020693F590D4
:10013000050822E4F590E50A90020693F5909002F6
:100140001F800EE4F590E50B90020693F590900267
:1001500020E493F5A0050822E4F590E50C90020652
:0D01600093F590900221E493F5A0E4F508DA
:01016D00226F
:0300000002000EED
:0C000E00787FE4F6D8FD758110020055E3
:10016E00BC000BBE0029EF8DF084FFADF022E4CC75
:10017E00F875F008EF2FFFEE33FEEC33FCEE9DEC3E
:10018E00984005FCEE9DFE0FD5F0E9E4CEFD22ED84
:10019E00F8F5F0EE8420D21CFEADF075F008EF2FCE
:1001AE00FFED33FD4007985006D5F0F222C398FDBF
:0501BE000FD5F0EA225C
:10001A00020247E493A3F8E493A34003F68001F2B3
:10002A0008DFF48029E493A3F85407240CC8C333E7
:10003A00C4540F4420C8834004F456800146F6DFB6
:10004A00E4800B0102040810204080900254E47EF0
:10005A00019360BCA3FF543F30E509541FFEE493AB
:10006A00A360010ECF54C025E060A840B8E493A372
:10007A00FAE493A3F8E493A3C8C582C8CAC583CA9D
:10008A00F0A3C8C582C8CAC583CADFE9DEE780BE55
:01025D0000A0
:00000001FF
