:0B023C0002090000010801020B2693DC
:1001E200120227AE09AF0A7C007D321200F8ED4CF4
:1001F2007002B290C3E50A9488E509941340E4E4DE
:09020200F508D29012019F80FB67
:100227005389F0438901758A0C758CFEC28DD2AF54
:05023700D2A9D28C22C7
:10019F00AE0BAF0C7C037DE81200F88F0EAE0BAFE9
:1001AF000C7C007D641200F87C007D0A1200F88D33
:1001BF000FAE0BAF0C7C007D0A1200F87C007D0A9D
:1001CF001200F88D10AE0BAF0C7C007D0A1200F8F8
:0301DF008D11225D
:03000B0002014DA2
:10014D00C0E0C0F0C083C082C0D075D000C000C078
:10015D0001C002C003C004C005C006C007C28CE5C3
:10016D0008B40108050AE50A7002050912009A751E
:10017D008A0C758CFED28CD007D006D005D004D059
:10018D0003D002D001D000D0D0D082D083D0F0D017
:02019D00E0324E
:10020B003F065B4F666D7D077F6FFF7C395E7971B3
:0C021B007638373E735C0040F7FBFDFEB8
:09024700040E17171717010D0032
:10009A00E50D14601E14602B14603D2403704EE4B9
:1000AA00F59090022393F5A0E50E90020B93F5903C
:1000BA00050D22E4F590E50F90020B93F59090025E
:1000CA0024800EE4F590E51090020B93F5909002CF
:1000DA0025E493F5A0050D22E4F590E51190020BB5
:0D00EA0093F590900226E493F5A0E4F50D47
:0100F70022E6
:0300000002000EED
:0C000E00787FE4F6D8FD758111020055E2
:1000F800BC000BBE0029EF8DF084FFADF022E4CCEC
:10010800F875F008EF2FFFEE33FEEC33FCEE9DECB4
:10011800984005FCEE9DFE0FD5F0E9E4CEFD22EDFA
:10012800F8F5F0EE8420D21CFEADF075F008EF2F44
:10013800FFED33FD4007985006D5F0F222C398FD35
:050148000FD5F0EA22D2
:10001A000201E2E493A3F8E493A34003F68001F219
:10002A0008DFF48029E493A3F85407240CC8C333E7
:10003A00C4540F4420C8834004F456800146F6DFB6
:10004A00E4800B010204081020408090023CE47E08
:10005A00019360BCA3FF543F30E509541FFEE493AB
:10006A00A360010ECF54C025E060A840B8E493A372
:10007A00FAE493A3F8E493A3C8C582C8CAC583CA9D
:10008A00F0A3C8C582C8CAC583CADFE9DEE780BE55
:0102500000AD
:00000001FF
