:100AA900D3EF9400EE940040147D7C7C00ED1D7022
:0D0AB900011CED4C70F7EF1F70E61E80E38E
:010AC600220D
:080B58007F027E27DEFEDFFCB8
:010B60002272
:050B6100007F1BDFFE18
:010B6600226C
:100B3B00D2A1D2A000000000C2A000000000C2A100
:010B4B002287
:100A88007E80EE601B5F7004C2A08002D2A00000CE
:100A98000000D2A100000000C2A1EEC313FE80E254
:010AA800222B
:100AFD00D2A000000000D2A1A2A09202000000002E
:040B0D00C2A1A202DD
:010B110022C1
:100B1200C2A1C2A000000000D2A100000000D2A029
:050B22000000000022AC
:1009EB004380F0C2A6D2A5D2A7E58054F0FFC2A7E0
:1009FB00D2A7E58054F0C4540F4207C2A70522E5E5
:0A0A0B0022D394325004EF20E7DDFF
:010A150022BE
:100A3E008F22C2A6C2A5852280D2A77F017E001278
:100A4E000AA9C2A7E522C454F0F580D2A77F017E81
:070A5E0000120AA9C2A72241
:1009BE008F211209EB1209EBD2A6C2A5852180D296
:1009CE00A77F017E00120AA9C2A7E521C454F0F543
:0D09DE0080D2A77F017E00120AA9C2A722C5
:100AC7007F33120A3E7F32120A3E7F28120A3E7F88
:0E0AD7000C120A3E7F06120A3E7F01020A3E02
:100B27008F21ED7004E5218004E52124404480FFF6
:040B3700120A3E223E
:100A16008B1C8A1D891E120B27AB1CAA1DA91E1230
:100A260008006013051EE51E7002051D14F9120864
:080A360000FF1209BE80E2225C
:06097F008F158D168B1789
:10098500E4F51BE51775F008A42440251BFF120AA2
:100995003EAB18AA19A91A851B827583001208197E
:1009A500FF1209BE051BE51BC3940840D6AD16AF63
:0909B50015120B27AF170209BE51
:0A08E3008E088F098B0A8A0B890C1E
:1008ED00C3E50864809480501CC3E49509F509E4C0
:1008FD009508F508050CE50C7002050B14F9742D1F
:10090D00120846050EAE08AF097C007D0A12085884
:10091D00ED2430FFAE0D050D740F2EF8A607AE08B1
:10092D00AF097C007D0A1208588E088F09D3E5099E
:10093D009400E5086480948050CBE50D250EF50EEE
:10094D00AF0D150DEFD39400401B740F250DF8E678
:10095D00FFAB0A050CE50CAA0B7002050B14F9EFA1
:10096D0012084680DBAB0AAA0BA90CE4120846AFAD
:01097D000E6B
:01097E002256
:100A6500120AC77F0A7E00120AA97F50120AE59270
:100A750000E4FDFF120B27A200E4332430FF120926
:030A8500BE80EE42
:020AE5008F215F
:100AE700120B3BE52125E0FF120A88120AFD92014D
:050AF700120B12A20128
:010AFC0022D7
:03000000020B4CA4
:0C0B4C00787FE4F6D8FD758122020A656E
:10080000BB010689828A83E0225002E722BBFE02F6
:09081000E32289828A83E4932229
:10081900BB010CE58229F582E5833AF583E0225094
:1008290006E92582F8E622BBFE06E92582F8E222DE
:0D083900E58229F582E5833AF583E49322F8
:10084600BB010689828A83F0225002F722BBFE0191
:02085600F3228B
:10085800C2D5EC30E709B2D5E4C39DFDE49CFCEEBB
:1008680030E715B2D5E4C39FFFE49EFE12088EC39D
:10087800E49DFDE49CFC800312088E30D507C3E498
:060888009FFFE49EFE222A
:10088E00BC000BBE0029EF8DF084FFADF022E4CC4E
:10089E00F875F008EF2FFFEE33FEEC33FCEE9DEC17
:1008AE00984005FCEE9DFE0FD5F0E9E4CEFD22ED5D
:1008BE00F8F5F0EE8420D21CFEADF075F008EF2FA7
:1008CE00FFED33FD4007985006D5F0F222C398FD98
:0508DE000FD5F0EA2235
:00000001FF
