:10095200750916750A16750A16120800EF14B410F6
:100962000040030209F790097675F003A4C58325B8
:10097200F0C583730209A60209A80209AA0209ACFA
:100982000209AE0209B00209B20209B70209BC02A9
:1009920009C10209C90209D10209D90209E1020900
:1009A200E90209F18024802A80308036803C80422E
:1009B200750C078040750C08803B750C09803675F4
:1009C2000B01E4F50C802E750B01750C0180267568
:1009D2000B01750C02801E750B01750C03801675D8
:1009E2000B01750C04800E750B01750C05800675E4
:0B09F2000B01750C06120A8902095265
:100AEA00D3EF9400EE940040147D7C7C00ED1D70E1
:0D0AFA00011CED4C70F7EF1F70E61E80E34D
:010B070022CB
:100B08003F065B4F666D7D077F6FFF7C395E7971AD
:0C0B18007638373E735C0040F7FBFDFEB2
:090B240004091717171701080056
:100A8900E50814601714602114603A24037051E5D5
:100A990009900B0893F580900B208018E50A900BBC
:100AA9000893F580900B21800BE50B900B0893F5CB
:100AB90080900B22E493F5B07F017E00120AEAE4EC
:100AC900F580050822E50C900B0893F580900B231F
:100AD900E493F5B07F017E00120AEAE4F580F50897
:010AE90022EA
:10080000E4F50DD2A0D2A1D2A2D2A3C2A4D2A5D285
:10081000A6D2A730A00930A10630A20320A3377FBB
:100820000A7E00120AEA30A00930A10630A2032095
:10083000A31820A003750D0120A103750D0220A2AD
:1008400003750D0320A303750D0430A0FD30A1FA3C
:1008500030A2F730A3F4D2A0D2A1D2A2D2A3D2A4C4
:10086000C2A5D2A6D2A730A00930A10630A203208B
:10087000A3377F0A7E00120AEA30A00930A10630B1
:10088000A20320A31820A003750D0520A103750D58
:100890000620A203750D0720A303750D0830A0FDE7
:1008A00030A1FA30A2F730A3F4D2A0D2A1D2A2D2C2
:1008B000A3D2A4D2A5C2A6D2A730A00930A10630E7
:1008C000A20320A3377F0A7E00120AEA30A0093073
:1008D000A10630A20320A31820A003750D0920A1B2
:1008E00003750D0A20A203750D0B20A303750D0CD3
:1008F00030A0FD30A1FA30A2F730A3F4D2A0D2A1EB
:10090000D2A2D2A3D2A4D2A5D2A6C2A730A0093027
:10091000A10630A20320A3377F0A7E00120AEA3024
:10092000A00930A10630A20320A31820A003750D52
:100930000D20A103750D0E20A203750D0F20A3033A
:10094000750D1030A0FD30A1FA30A2F730A3F4AF3E
:010950000D99
:010951002283
:030000000209FDF5
:0C09FD00787FE4F6D8FD75810D020A44F5
:100A0900020952E493A3F8E493A34003F68001F2A8
:100A190008DFF48029E493A3F85407240CC8C333EE
:100A2900C4540F4420C8834004F456800146F6DFBD
:100A3900E4800B0102040810204080900B24E47E1E
:100A4900019360BCA3FF543F30E509541FFEE493B2
:100A5900A360010ECF54C025E060A840B8E493A379
:100A6900FAE493A3F8E493A3C8C582C8CAC583CAA4
:100A7900F0A3C8C582C8CAC583CADFE9DEE780BE5C
:010B2D0000C7
:00000001FF
