:1009CA00D3EF9400EE940040147D7C7C00ED1D7002
:0D09DA00011CED4C70F7EF1F70E61E80E36E
:0109E70022ED
:1009E8003F065B4F666D7D077F6FFF7C395E7971CF
:0C09F8007638373E735C0040F7FBFDFED4
:090A1F000409171717170108005C
:10094300E50814601714602114603A24037051E51C
:10095300099009E893F580900A008018E50A900948
:10096300E893F580900A01800BE50B9009E893F575
:1009730080900A02E493F5907F017E001209CAE495
:10098300F580050822E50C9009E893F580900A03A9
:10099300E493F5907F017E001209CAE4F580F5081F
:0109A3002231
:1008000075131675A0F085A011E51164F0601C7FCA
:100810000A7E001209CAE51164F0600FE5A054F0E9
:10082000F51175A00FE5A0540FF512E51125121270
:1008300009A408B17708AC7B08A77D08A27E089DB3
:10084000B70898BB0893BD088EBE0889D70884DB1B
:10085000087FDD087ADE0875E70870EB086BED08A5
:1008600066EE000008B475130180497513028044D8
:10087000751303803F751304803A75130580357531
:1008800013068030751307802B75130880267513A7
:1008900009802175130A801C75130B801775130CC2
:1008A000801275130D800D75130E800875130F805F
:0608B00003751310AF13E5
:0108B600221F
:070A2800010E16020F000091
:100A0400120A3D75A00FE50DB40108E4F50D1208B6
:0B0A1400008F0E120A3012094380EB25
:0D0A3000750917750A17750B17850E0C2236
:070A3D00D288D2A8D2AF223B
:03000300020A44AA
:040A4400750D0132F9
:030000000208B73C
:0C08B700787FE4F6D8FD7581130208FE7E
:1009A400D083D082F8E4937012740193700DA3A3E2
:1009B40093F8740193F5828883E4737402936860F6
:0609C400EFA3A3A380DFF6
:1008C300020A04E493A3F8E493A34003F68001F23D
:1008D30008DFF48029E493A3F85407240CC8C33336
:1008E300C4540F4420C8834004F456800146F6DF05
:1008F300E4800B0102040810204080900A1FE47E6C
:10090300019360BCA3FF543F30E509541FFEE493F9
:10091300A360010ECF54C025E060A840B8E493A3C0
:10092300FAE493A3F8E493A3C8C582C8CAC583CAEB
:10093300F0A3C8C582C8CAC583CADFE9DEE780BEA3
:010A2F0000C6
:00000001FF
