:0308E40001080107
:10088C001208D0850899209904C29980F98508909E
:10089C00AF087801EF08800123D8FDF5087FE87ECA
:0608AC00031208B280DD1A
:1008D00075985053890F438920758BFA758DFAC22C
:0408E000ABD28E22E7
:1008B200D3EF9400EE940040147D7C7C00ED1D701B
:0D08C200011CED4C70F7EF1F70E61E80E387
:0108CF002206
:03000000020800F3
:0C080000787FE4F6D8FD758108020847F7
:10080C0002088CE493A3F8E493A34003F68001F26E
:10081C0008DFF48029E493A3F85407240CC8C333ED
:10082C00C4540F4420C8834004F456800146F6DFBC
:10083C00E4800B01020408102040809008E4E47E60
:10084C00019360BCA3FF543F30E509541FFEE493B1
:10085C00A360010ECF54C025E060A840B8E493A378
:10086C00FAE493A3F8E493A3C8C582C8CAC583CAA3
:10087C00F0A3C8C582C8CAC583CADFE9DEE780BE5B
:0108E7000010
:00000001FF
