:100E5300D3EF9400EE940040147D7C7C00ED1D7074
:0D0E6300011CED4C70F7EF1F70E61E80E3E0
:010E7000225F
:100DAD005761697420666F722053657269616C209A
:100DBD00436F6D6D756E69636174696F6E205465F7
:100DCD0073742053746172742E0D0A00506C65613A
:100DDD0073652053656E64206120636F6D6D616E68
:050DED00643A0D0A004C
:100D3100120E8D120EA3D2AF7BFF7A0D79AD120880
:100D4100627BFF7A0D79D9120862E526B401FBE4D2
:100D5100F526FB7A007927120E2EE52724FE602264
:100D610004703E753F00852840E540754000F53F21
:100D7100E5292540F540E4353FF53FE4F543F544E9
:100D810080C8753D0085283EE540753E00F53D7EF5
:100D9100002529F53EEE353FF53DF541853E428082
:0C0DA100A97B007A007927120E71809E59
:100EA3005389F0438901758A66758CFCC28DD2A97A
:030EB300D28C22BC
:03000B00020DF2F1
:100DF200C0E0C0D0C28CC3E5449540E543953F5066
:100E02000C0544E54470020543C2908002D290E58D
:100E1200424541600AE542154270021541B2B7757A
:0C0E22008A66758CFCD28CD0D0D0E032F7
:090EB600012600013C00012500A9
:100E8D0075985053890F438920758BFD758DFDC263
:060E9D00ABD28ED2AC22A4
:080EC0008F993099FDC29922BF
:100E2E008B088A09890AAB08AA09A90A120B5C6009
:100E3E0013050AE50A7002050914F9120B5CFF127C
:050E4E000EC080E2224D
:060EC800AE07120EC0226D
:060E71008B088A09890AC2
:100E7700E4FFAB08AA09A90A8F82758300E4120B65
:050E8700750FBF14ED22
:010E8C002243
:03002300020C0CC0
:090C0C00C0E0C0D075D000C000AA
:100C1500209803020C99C298859922E53C14601925
:100C250014602514604614605224047067E522B4EC
:100C35005505753C01805D803DE522B4AA08753CEB
:100C450002752500804E802EE5222523F523E52219
:100C5500622474272525F8A6220525E525D39402C7
:100C65004005753C03802D753C028028E523B5229F
:100C750005753C04801E753C008019E524B52205E8
:100C85007526018003753C00753C007525007523AC
:090C950000752400309902C29997
:070C9E00D000D0D0D0E032FD
:03000000020CA54A
:0C0CA500787FE4F6D8FD758144020CEC69
:100B5C00BB010689828A83E0225002E722BBFE0297
:090B6C00E32289828A83E49322CA
:100B7500F8BB010DE58229F582E5833AF583E8F0B6
:100B8500225006E92582C8F622BBFE05E92582C862
:020B9500F2224A
:10080000E517240BF8E60517227808300702780B65
:10081000E475F001120BD6020B5C2000EB7F2ED2A8
:10082000008018EF540F2490D43440D4FF30040BD0
:10083000EF24BFB41A0050032461FFE518600215CD
:1008400018051BE51B7002051A30070D7808E475C2
:10085000F001120BD6EF020BC4020EC87403D207CC
:100860008003E4C207F5178B088A09890AE4F518A2
:10087000F51AF51BE51860077F2012083B80F57517
:1008800019FFC201C200C202C203C205C206C208E9
:10089000120809FF700D3007057F0012084CAF1BCE
:1008A000AE1A22B4255FC2D5C204120809FF24D0B3
:1008B000B40A00501A75F00A781830D50508B6FF4A
:1008C0000106C6A426F620D5047002D20380D924DE
:1008D000CFB41A00EF5004C2E5D204020A4CD20190
:1008E00080C6D20080C0D20280BCD2D580BAD205E8
:1008F00080B47F2012083B2002077401B518004025
:10090000F1120800FF12083B020874D208D20680D8
:1009100095120800FB120800FA120800F94A4B7001
:1009200006791D7A0B7BFF20022EE518602A7E00D7
:100930008E82758300120B9760060EEE651970F0BB
:10094000C2D5EBC0E0EAC0E0E9C0E0EE120A93D005
:10095000E0F9D0E0FAD0E0FB120B5CFF60AAEBC03C
:10096000E0EAC0E0E9C0E012083BD0E02401F9D0A1
:10097000E03400FAD0E0FBE5190460DCD519D98039
:10098000877BFF7A0A798FD202809C791080027966
:1009900008C206C2088008D2D5790A8004790AC242
:1009A000D5E519047002F519E4FAFDFEFF120800FE
:1009B000FC7B08200113120800FD7B1030000A1296
:1009C0000800FE120800FF7B20EC3382D592D55040
:1009D00013C3E43000069FFFE49EFEE42001039D64
:1009E000FDE49CFCE4CBF8C201EC700CCFCECDCC86
:1009F000E824F8F870F38017C3EF33FFEE33FEED11
:100A000033FDEC33FCEB33FB994002FB0FD8E9EBF1
:100A1000300105F8D0E0C448B201C0E00AEC4D4E08
:100A20004F78207B0070C2EAB5190040BCC0E012CC
:100A30000A95D0F0D0E0200104C4C0E0C4B201C0E7
:100A4000F0120824D0F0D5F0EB020874120BE6097E
:100A50001153098B5808E24C08DE42098F4F099761
:0F0A60004409974908F743099D550981460981C3
:100A6F00450981470B3D5008E62D08EA2E090D2B4D
:100A7F0008EE23090B200B262A08A64800000905BB
:100A8F003F3F3F00790AA2D5200314300509B91062
:100A9F00020404B9080104A2D52006025001042063
:100AAF0002689202B518005034C0E07F203003195D
:100ABF007F30A20272067205500F120AECC202C2F8
:100ACF0006C205C2087F30800F300503E9C0E0126F
:100ADF00083B300503D0E0F9D0E0B518CC3005174E
:100AEF007F30B9100C12083B7F583004077F788095
:100AFF0003B9080312083B3002057F2D02083B7F24
:100B0F00202008F87F2B2006F322920280CF286E38
:100B1F00756C6C2900D2011208003001F8C20178FF
:100B2F001830D50108F60208A62D5043495812086F
:100B3F00002403B405004001E4900B389312082CF5
:0D0B4F00743A12082CD20375180402098BA9
:100CB100020D31E493A3F8E493A34003F68001F21B
:100CC10008DFF48029E493A3F85407240CC8C33344
:100CD100C4540F4420C8834004F456800146F6DF13
:100CE100E4800B0102040810204080900EB6E47EDF
:100CF100019360BCA3FF543F30E509541FFEE49308
:100D0100A360010ECF54C025E060A840B8E493A3CE
:100D1100FAE493A3F8E493A3C8C582C8CAC583CAF9
:100D2100F0A3C8C582C8CAC583CADFE9DEE780BEB1
:010EBF000032
:100B9700BB010CE58229F582E5833AF583E0225013
:100BA70006E92582F8E622BBFE06E92582F8E2225D
:0D0BB700E58229F582E5833AF583E4932277
:100BC400BB010689828A83F0225002F722BBFE0110
:020BD400F3220A
:100BD600FAE6FB0808E6F925F0F618E6CA3AF62220
:100BE600D083D082F8E4937012740193700DA3A39E
:100BF60093F8740193F5828883E4737402936860B2
:060C0600EFA3A3A380DFB1
:00000001FF
