:100AEA00D3EF9400EE940040147D7C7C00ED1D70E1
:0D0AFA00011CED4C70F7EF1F70E61E80E34D
:010B070022CB
:080B5E007F027E27DEFEDFFCB2
:010B6600226C
:050B6700007F1BDFFE12
:010B6C002266
:100A4A004380F0C2A6D2A5D2A7E58054F0FFC2A780
:100A5A00D2A7E58054F0C4540F4207C2A70523E584
:0A0A6A0023D394325004EF20E7DD9F
:010A7400225F
:100A9D008F23C2A6C2A5852380D2A77F017E001217
:100AAD000AEAC2A7E523C454F0F580D2A77F017EE0
:070ABD0000120AEAC2A722A1
:1009F0008F22120A4A120A4AD2A6C2A5852280D2A2
:100A0000A77F017E00120AEAC2A7E522C454F0F5CE
:0D0A100080D2A77F017E00120AEAC2A72251
:100B08007F33120A9D7F32120A9D7F28120A9D7F29
:0E0B18000C120A9D7F06120A9D7F01020A9DA3
:100B3E008F22ED7004E5228004E52224404480FFDC
:040B4E00120A9D22C8
:100A75008B1C8A1D891E120B3EAB1CAA1DA91E12BA
:100A850008006013051EE51E7002051D14F9120805
:080A950000FF1209F080E222CB
:06097F008F158D168B1789
:10098500E4F51BE51775F008A42440251BFF120AA2
:100995009DAB18AA19A91A851B827583001208191F
:1009A500FF1209F0051BE51BC3940840D6AD16AF31
:0909B50015120B3EAF170209F008
:0A08E3008E088F098B0A8A0B890C1E
:1008ED00C3E50864809480501CC3E49509F509E4C0
:1008FD009508F508050CE50C7002050B14F9742D1F
:10090D00120846050EAE08AF097C007D0A12085884
:10091D00ED2430FFAE0D050D740F2EF8A607AE08B1
:10092D00AF097C007D0A1208588E088F09D3E5099E
:10093D009400E5086480948050CBE50D250EF50EEE
:10094D00AF0D150DEFD39400401B740F250DF8E678
:10095D00FFAB0A050CE50CAA0B7002050B14F9EFA1
:10096D0012084680DBAB0AAA0BA90CE4120846AFAD
:01097D000E6B
:01097E002256
:100AC400120B087F0A7E00120AEA120B26E433F5A1
:100AD400217F01120A9DE4FDFF120B3EE521243023
:060AE400FF1209F080F092
:100B2600C2AFC2B7120B5ED2B7120B67A2B7920062
:070B360030B7FDD2AFA200B1
:010B3D002295
:0209BE008F2484
:1009C000C2AF752501E5256024C2B7000070047F21
:1009D0000180027F00E5245F6004C2B78002D2B7C5
:0F09E000120B67D2B7E52525E0F52580D8D2AFF9
:0109EF0022E5
:100A1D00C2AF752701E527601FC2B70000D2B7002E
:100A2D000020B705F452268004E5274226120B67F5
:0C0A3D00E52725E0F52780DDD2AFAF26CD
:010A4900228A
:03000000020B529E
:0C0B5200787FE4F6D8FD758127020AC404
:10080000BB010689828A83E0225002E722BBFE02F6
:09081000E32289828A83E4932229
:10081900BB010CE58229F582E5833AF583E0225094
:1008290006E92582F8E622BBFE06E92582F8E222DE
:0D083900E58229F582E5833AF583E49322F8
:10084600BB010689828A83F0225002F722BBFE0191
:02085600F3228B
:10085800C2D5EC30E709B2D5E4C39DFDE49CFCEEBB
:1008680030E715B2D5E4C39FFFE49EFE12088EC39D
:10087800E49DFDE49CFC800312088E30D507C3E498
:060888009FFFE49EFE222A
:10088E00BC000BBE0029EF8DF084FFADF022E4CC4E
:10089E00F875F008EF2FFFEE33FEEC33FCEE9DEC17
:1008AE00984005FCEE9DFE0FD5F0E9E4CEFD22ED5D
:1008BE00F8F5F0EE8420D21CFEADF075F008EF2FA7
:1008CE00FFED33FD4007985006D5F0F222C398FD98
:0508DE000FD5F0EA2235
:00000001FF
