:0B025D001201E012019612008F80F5E4
:10019600120145EF24FE601D1460321460352403FD
:1001A6007037050EE50E7002050DD3940FE50D941C
:1001B6002740268018050EE50E7002050DD3940F14
:1001C600E50D94274013750D27750E0F22E4F50DE6
:0A01D600F50E22750D00750E58227B
:1001E000AE0DAF0E7C037DE81200F08F09AE0DAFAF
:1001F0000E7C007D641200F07C007D0A1200F08D00
:100200000AAE0DAF0E7C007D0A1200F07C007D0A64
:100210001200F08D0BAE0DAF0E7C007D0A1200F0C7
:030220008D0C2220
:10014500E4F50FD2B0D2B1D2B2D2B330B00930B1EA
:100155000630B20320B3377F0A7E0012022330B087
:100165000930B10630B20320B31820B003750F0172
:1001750020B103750F0220B203750F0320B3037579
:100185000F0430B0FD30B1FA30B2F730B3F4AF0F31
:010195002247
:10022300D3EF9400EE940040147D7C7C00ED1D70B0
:0D023300011CED4C70F7EF1F70E61E80E31C
:01024000229B
:100241003F065B4F666D7D077F6FFF7C395E79717D
:0C0251007638373E735C0040F7FBFDFE82
:090268000409171717170108001B
:10008F00E50814601714602114603A24037051E5D9
:10009F000990024193F5909002598018E50A900259
:1000AF004193F59090025A800BE50B90024193F526
:1000BF009090025BE493F5A07F017E00120223E48F
:1000CF00F590050822E50C90024193F59090025CA3
:1000DF00E493F5A07F017E00120223E4F590F5086A
:0100EF0022EE
:03000000020003F8
:0C000300787FE4F6D8FD75810F02004AFA
:1000F000BC000BBE0029EF8DF084FFADF022E4CCF4
:10010000F875F008EF2FFFEE33FEEC33FCEE9DECBC
:10011000984005FCEE9DFE0FD5F0E9E4CEFD22ED02
:10012000F8F5F0EE8420D21CFEADF075F008EF2F4C
:10013000FFED33FD4007985006D5F0F222C398FD3D
:050140000FD5F0EA22DA
:10000F0002025DE493A3F8E493A34003F68001F2A8
:10001F0008DFF48029E493A3F85407240CC8C333F2
:10002F00C4540F4420C8834004F456800146F6DFC1
:10003F00E4800B0102040810204080900268E47EE7
:10004F00019360BCA3FF543F30E509541FFEE493B6
:10005F00A360010ECF54C025E060A840B8E493A37D
:10006F00FAE493A3F8E493A3C8C582C8CAC583CAA8
:10007F00F0A3C8C582C8CAC583CADFE9DEE780BE60
:01027100008C
:00000001FF
