:1001CD00D3EF9400EE940040147D7C7C00ED1D7007
:0D01DD00011CED4C70F7EF1F70E61E80E373
:0101EA0022F2
:1001EB003F065B4F666D7D077F6FFF7C395E7971D4
:0C01FB007638373E735C0040F7FBFDFED9
:09021A0004091717171701080069
:10014600E50814601714602114603A24037051E521
:10015600099001EB93F5809002038018E50A90015F
:10016600EB93F580900204800BE50B9001EB93F581
:1001760080900205E493F5907F017E001201CDE4A4
:10018600F580050822E50C9001EB93F580900206B8
:10019600E493F5907F017E001201CDE4F580F50829
:0101A6002236
:10000300750F1475A0F085A00DE50D64F0601C7FDD
:100013000A7E001201CDE50D64F0600FE5A054F0F7
:10002300F50D75A00FE5A0540FF50EE50D250E1285
:1000330001A700B47700AF7B00AA7D00A57E00A0D6
:10004300B7009BBB0096BD0091BE008CD70087DB39
:100053000082DD007DDE0078E70073EB006EED00CB
:1000630069EE000000B7750F018049750F028044E7
:10007300750F03803F750F04803A750F0580357542
:100083000F068030750F07802B750F088026750FBC
:10009300098021750F0A801C750F0B8017750F0CD3
:1000A3008012750F0D800D750F0E8008750F0F8070
:0600B30003750F10AF0FF2
:0100B9002224
:10020700750917750A17750B171200038F0C120162
:030217004680F628
:030000000200BA41
:0C00BA00787FE4F6D8FD75810F0201018B
:1001A700D083D082F8E4937012740193700DA3A3E7
:1001B70093F8740193F5828883E4737402936860FB
:0601C700EFA3A3A380DFFB
:1000C600020207E493A3F8E493A34003F68001F247
:1000D60008DFF48029E493A3F85407240CC8C3333B
:1000E600C4540F4420C8834004F456800146F6DF0A
:1000F600E4800B010204081020408090021AE47E7E
:10010600019360BCA3FF543F30E509541FFEE493FE
:10011600A360010ECF54C025E060A840B8E493A3C5
:10012600FAE493A3F8E493A3C8C582C8CAC583CAF0
:10013600F0A3C8C582C8CAC583CADFE9DEE780BEA8
:0102230000DA
:00000001FF
