:10144D00D3EF9400EE940040147D7C7C00ED1D7074
:0D145D00011CED4C70F7EF1F70E61E80E3E0
:01146A00225F
:10146B007580FFC2A6D2A5D2A7AF80C2A70541E562
:0A147B0041D394325004EF20E7ED56
:011485002244
:1014AC00AE0712146BC2A6C2A58E80D2A7C2A72209
:1014BC00AE0712146BD2A6C2A58E80D2A7C2A722E9
:101486007F381214AC7F0C1214AC7F061214AC7F9A
:04149600010214AC8F
:10149A00AE07ED7003EE8003EE24404480FF121481
:0214AA00AC2272
:1013FE008B3E8A3F894012149AAB3EAA3FA94012F7
:10140E000CC160130540E5407002053F14F9120C43
:08141E00C1FF1214BC80E222A0
:0613C8008F088D09AC0343
:1013CE00E4FDEC75F008A424402DFF1214ACAB0B19
:1013DE00AA0CA90D8D82758300120CDAFF1214BCB3
:1013EE000DBD08DEAD09AF0812149AAF040214BC8D
:0614D80025302E346600F1
:101257007522FB75232DE4F52DF52C752BA0752A2A
:101267003F75318475309E752FAD752E3F121486EC
:101277007F0A7E0012144DAE22AF23EE3395E0FDB8
:10128700FC7B007A00792412132C7B007A007924E6
:10129700E4FDFF1213FEE4FFFE7DC87C42AB2DAADE
:1012A7002CA92BA82A1208001209068E328F337D2B
:1012B70001E4FF12149AAE32AF337C007D64120D45
:1012C70019EF2430FF1214BC7F2E1214BCAE32AFBC
:1012D700337C007D0A120D197C007D0A120D19ED71
:1012E7002430FF1214BCAE32AF337C007D0A120DDE
:1012F70019ED2430FF1214BC7541FF754214754374
:10130700D8853147853046852F45852E447B007A21
:10131700007934120E447B007A0079347D017F0610
:051327001213FE80FE20
:0A132C008E3E8F3F8B408A418942BC
:10133600C3E53E64809480501CC3E4953FF53FE4CA
:10134600953EF53E0542E5427002054114F9742DBD
:10135600120D070544AE3EAF3F7C007D0A120D1903
:10136600ED2430FFAE43054374452EF8A607AE3E86
:10137600AF3F7C007D0A120D198E3E8F3FD3E53FAD
:101386009400E53E6480948050CBE5432544F544C3
:10139600AF431543EFD39400401B74452543F8E64D
:1013A600FFAB400542E542AA417002054114F9EF40
:1013B600120D0780DBAB40AA41A942E4120D07AF2C
:0113C60044E2
:0113C7002203
:10080000EC4D6011E8497017ED33EC3304600DE4F2
:10081000FCFFFEFD22E933E8330470F8020972128E
:10082000093D58046009E4CC24815006285009028F
:10083000097C284003020979C0E0EB4A7044B98082
:1008400006D0E0FB020968EF4E701CBD8008EBFF8C
:10085000EAFEE9FD80EBE98DF0A4FEE5F00208E98F
:10086000E9CDF9EAFEEBFFEF89F0A4FCE5F0CE89D3
:10087000F0A42EFFE435F0CD89F0A42DFEE435F090
:100880008067EF4E7005BD80D780C3EF8BF0A4ACBE
:10089000F0EE8BF0A42CFCE435F0F8EF8AF0A42CF9
:1008A000E5F038FCE433CB8DF0A42CFCE5F03BF80C
:1008B000EE8AF0A42CFCE5F038F8E433CF89F0A4FC
:1008C0002CFCE5F038CF3400CE89F0A42FFFE5F002
:1008D0003EFEE433C98DF0A42EFEE5F039CD8AF05A
:1008E000A42FFFE5F03EFEE43DFD33D0E0FB5007D2
:1008F0000BBB000F02097CEC2CFCEF33FFEE33FE48
:06090000ED33FD02095475
:10090600EDD2E7CD33EC3392D524814006E4FFFEE9
:10091600FDFC22FCE4CFCECDCC24E0501174FF8048
:10092600EDC3CC13CCCD13CDCE13CECF13CF0470E5
:07093600F030D5DE020D4F89
:100DE800E5552441F8E6055522783E30070278415A
:100DF800E475F001120D5D020CC12000EB7F2ED2CC
:100E0800008018EF540F2490D43440D4FF30040BE2
:100E1800EF24BFB41A0050032461FFE556600215A1
:100E2800560559E5597002055830070D783EE475A6
:100E3800F001120D5DEF020D070214267403D207AC
:100E48008003E4C207F5558B3E8A3F8940E4F55696
:100E5800F558F559E55660077F20120E2380F57581
:100E680057FFC201C200C202C203C205C206C208BD
:100E7800120DF1FF700D3007057F00120E34AF59C7
:100E8800AE5822B4255FC2D5C204120DF1FF24D09A
:100E9800B40A00501A75F00A785630D50508B6FF1E
:100EA8000106C6A426F620D5047002D20380D924F0
:100EB800CFB41A00EF5004C2E5D204021121D201C6
:100EC80080C6D20080C0D20280BCD2D580BAD205FA
:100ED80080B47F20120E232002077401B55600400B
:100EE800F1120DE8FF120E23020E5CD208D2068022
:100EF80095120DE8FB120DE8FA120DE8F94A4B704D
:100F08000679187A127BFF20022EE556602A7E00A9
:100F18008E82758300120CDA60060EEE655770F04B
:100F2800C2D5EBC0E0EAC0E0E9C0E0EE121181D022
:100F3800E0F9D0E0FAD0E0FB120CC1FF60AAEBC0E8
:100F4800E0EAC0E0E9C0E0120E23D0E02401F9D0C5
:100F5800E03400FAD0E0FBE5570460DCD557D980CF
:100F680087D20280A212116460F7E557700104125B
:100F78000987A957600DE557600914F55712120B38
:100F8800EF60F3EA30E702F404C3995077EAF425F6
:100F9800570430E701E404F557800D12116460C16D
:100FA800EA05572557120987EA7854F630E701E42D
:100FB800255704D5570420050114121181E4C0E017
:100FC80012120B7854E6601320E70714F6120E0B82
:100FD800802204F6D0E014C0E07F00120E0BE55723
:100FE8006007120E021557800B300503120E02D04F
:100FF800E0020E5CD0E00480C512116460A0E557E1
:10100800041209877854EAF6E557200502600104BE
:05101800240412118107
:10101D0074FF04C0E012120B120E0BE557200502EF
:10102D006003120E02D0E0B557E87F45120E157819
:10103D0054E67F2B30E7047F2DF404C0E0120E231D
:10104D00D0E075F00A84C0F0120E0CD0E0120E0C38
:10105D00020E5C791080027908C206C2088008D29F
:10106D00D5790A8004790AC2D5E557047002F5577F
:10107D00E4FAFDFEFF120DE8FC7B08200113120DB2
:10108D00E8FD7B1030000A120DE8FE120DE8FF7B23
:10109D0020EC3382D592D55013C3E43000069FFF68
:1010AD00E49EFEE42001039DFDE49CFCE4CBF8C22C
:1010BD0001EC700CCFCECDCCE824F8F870F380178E
:1010CD00C3EF33FFEE33FEED33FDEC33FCEB33FBBF
:1010DD00994002FB0FD8E9EB300105F8D0E0C44888
:1010ED00B201C0E00AEC4D4E4F78207B0070C2EA91
:1010FD00B5570040BCC0E0121183D0F0D0E0200104
:10110D0004C4C0E0C4B201C0F0120E0CD0F0D5F092
:10111D00EB020E5C120D6D0EF9531060580ECA4C99
:10112D000EC64210644F106C44106C490EDF431014
:10113D0072550FA3461001450F6D471238500ECE54
:10114D002D0ED22E0EF52B0ED6230EF32012212AA4
:10115D000E8E4800000EEDE557B4FF0375570612CD
:10116D000DE8FC120DE8FD120DE8FE120DE8FF78FA
:10117D004D0209B6790AA2D5200314300509B9101C
:10118D00020404B9080104A2D5200602500104206E
:10119D0002689202B556005034C0E07F203003192A
:1011AD007F30A20272067205500F1211DAC202C20E
:1011BD0006C205C2087F30800F300503E9C0E0127A
:1011CD000E23300503D0E0F9D0E0B556CC3005172D
:1011DD007F30B9100C120E237F583004077F7880B2
:1011ED0003B90803120E233002057F2D020E237F53
:1011FD00202008F87F2B2006F322920280CF7F005B
:10120D00B407005005244DF8E6FF22286E756C6C6E
:10121D002900D201120DE83001F8C201785630D5FF
:10122D000108F6020E8E2D50434958120DE8240385
:10123D00B405004001E490123393120E14743A1267
:0A124D000E14D2037556040210605F
:10093D00E9D2E7C933E833F892D5EDD2E7CD33EC00
:07094D0033FC5002B2D52279
:10095400EC30E7100FBF000C0EBE00080DBD000404
:100964000BEB6014A2D5EB13FCED92E7FD2274FFB0
:10097400FCFDFEFF22E480F8A2D574FF13FC7D8009
:03098400E480EF1D
:10098700F920E72824F950037907E4F42402FB1837
:10099700DBFDE624FB5014E9600DE4F618E604F6E7
:0F09A700B40A08E4F6D9F57401F60A22C2D52283
:1009B600ED33EC3392D5FA602AB4FF33EDC2E77B10
:1009C600FF60067A0979DBE4227A0979E420D50406
:1009D6007A0979DF224E614E002B494E46002D4999
:1009E6004E4600E47A08F608DAFC7B00740722E833
:1009F600C0E0ECC0E0EDC0E0EEC0E0EFC0E0EA75BC
:100A0600F010A4CAABF075F04DA42BFBE435F0FC56
:100A1600EA2410FAEB34C5FBEC34D9FCEDC2E7FF4F
:100A260075F056A4F42411C5F0F434C58FF0A42A49
:100A3600E5F03BE43CF620E714120C81D0E0FFD051
:100A4600E0FED0E0FDD0E0FC120BB48014F40412FA
:100A56000C81D0E0FFD0E0FED0E0FDD0E0FC120833
:100A660000D0E0F8E6FAEDD2E7CD33EC332482FB92
:100A7600E4C3CF33CFCE33CECD33CD33DBF37B07D9
:100A860075F00A846004F6081B0AE5F0F6088FF094
:100A9600740AA4FFACF08EF0740AA42CFEACF050DD
:100AA600010C8DF0740AA42CFDE435F0F608DBDEAB
:030AB600740722A0
:100AB900020972E86480F8E933E83360110460F0F0
:100AC900ED33EC337009E8FCE9FDEAFEEBFF2204A3
:100AD90060DED3EB9FEA9EE99DE8C2E78CF0C2F79E
:100AE90095F0400CE8CCF8E9CDF9EACEFAEBCFFB6A
:100AF90012093D85D0F05804700320D5B3E804707D
:100B0900075002B2D502097C92D5EC0460F7E4CC17
:100B1900C0E0C398F8603B94186008400DD0E0FB32
:100B2900020954E4FBFAC9FC8028E830E406E4C968
:100B3900FBE4CAFCE830E305E4C9CACBFCE8540786
:100B49006010F8C3E913F9EA13FAEB13FBEC13FC91
:100B5900D8F130F52FC3E49CFCEF9BFFEE9AFEED34
:100B690099FDD0E0FBEF4E4D4C701222DB030209D8
:100B790079EC2CFCEF33FFEE33FEED33FDED30E77E
:100B8900EB020954EF2BFFEE3AFEED39FDD0E0FB05
:100B990050130BBB000302097CED13FDEE13FEEFAE
:080BA90013FFEC13FC020954D8
:100BB10002097CEC5D046005E859047003020972C6
:100BC10012093D580460F6EC4860F2EC7004FDFE39
:100BD100FF22C860DB2481C85009C3986002500617
:100BE1000209799850CAF582E9294B4A7005AB820E
:100BF10002096875F0007C1A7880C3EF9BEE9AEDCC
:100C010099400DC3EF9BFFEE9AFEED99FDE842F08E
:100C1100DC23ACF0D0E0FFD0E0FED0E0FDAB8220E1
:100C2100E7101BEB60BAEC2CFCEF33FFEE33FEED6B
:100C310033FD020954E803F830E705C0F075F00010
:100C4100EF2FFFEE33FEED33FD40B830E7C280AA4F
:100C51003F8000004120000042C80000447A0000AB
:100C6100461C400047C35000497424004B1896802D
:100C71004CBEBC205A0E1BCA6753C21C749DC5AE24
:100C8100FB60065407601C2323120CAFEB54386041
:100C910009120C9B120CAA120800ECF8EDF9EEFAFD
:100CA100EFCB22EB120CAA80F1543803241C900CD8
:100CB10051FE93FC0EEE93FD0EEE930ECE93FF22AA
:030000000214CC1B
:0C14CC00787FE4F6D8FD758159021257B4
:100CC100BB010689828A83E0225002E722BBFE0231
:090CD100E32289828A83E4932264
:100CDA00BB010CE58229F582E5833AF583E02250CF
:100CEA0006E92582F8E622BBFE06E92582F8E22219
:0D0CFA00E58229F582E5833AF583E4932233
:100D0700BB010689828A83F0225002F722BBFE01CB
:020D1700F322C5
:100D1900C2D5EC30E709B2D5E4C39DFDE49CFCEEF5
:100D290030E715B2D5E4C39FFFE49EFE120D93C3CD
:100D3900E49DFDE49CFC8003120D9330D507C3E4C8
:060D49009FFFE49EFE2264
:0E0D4F00C3E49FFFE49EFEE49DFDE49CFC22B5
:100D5D00FAE6FB0808E6F925F0F618E6CA3AF62297
:100D6D00D083D082F8E4937012740193700DA3A315
:100D7D0093F8740193F5828883E473740293686029
:060D8D00EFA3A3A380DF29
:10142600EFB40A07740D121431740A309811A89992
:10143600B8130CC2983098FDA899C298B811F63026
:0714460099FDC299F59922FE
:100D9300BC000BBE0029EF8DF084FFADF022E4CC44
:100DA300F875F008EF2FFFEE33FEEC33FCEE9DEC0D
:100DB300984005FCEE9DFE0FD5F0E9E4CEFD22ED53
:100DC300F8F5F0EE8420D21CFEADF075F008EF2F9D
:100DD300FFED33FD4007985006D5F0F222C398FD8E
:050DE3000FD5F0EA222B
:00000001FF
