:0A00950012007612009FD2AF80FE29
:100076005389F0438901758A9C758CFFC28DD28C99
:03008600D2A922DA
:03000B0002004CA4
:10004C00C0E0C0D0C28CE50AC394644003750A00BA
:10005C00E50AD395095004D2908002C290758A9C0F
:0A006C00758CFFD28CD0D0D0E032AA
:07009F00D288C289D2A82219
:0300030002000EEA
:04000E00C0E0C0D0BE
:100012000508E508D394044003750800E508146058
:1000220012146014146016146018240470177509F1
:10003200008012750919800D750932800875094B07
:05004200800375096454
:05004700D0D0D0E03232
:0300000002008972
:0C008900787FE4F6D8FD75810A0200952E
:00000001FF
