:0C022E00010938010A60010B2E010C5D73
:10000300E4F512F5131201930513E51370020512BB
:10001300C39488E512941340ECE50814604114601E
:10002300741470030200D1240370EEE4F50E750F0F
:1000330017E50975F00A84F510E50975F00A84855A
:10004300F011E4F512F5131201930513E513700291
:100053000512C39488E512941340EC050880BA7521
:100063000E01750F17E50A75F00A84F510E50A7598
:10007300F00A8485F0110508E4F512F513C3E513BE
:100083009488E512941350911201930513E51370AC
:10009300EC051280E8750E02750F17E50B75F00A73
:1000A30084F510E50B75F00A8485F0110508E4F575
:1000B30012F513C3E5139488E51294134003020069
:1000C3001C1201930513E51370E9051280E5750E03
:1000D30003750F17E50C75F00A84F510E50C75F040
:1000E3000A8485F011E4F512F5131201930513E563
:1000F3001370020512C39488E512941340ECE4F5DF
:040103000802001CD2
:1001F400D3EF9400EE940040147D7C7C00ED1D70E0
:0D020400011CED4C70F7EF1F70E61E80E34B
:0102110022CA
:100212003F065B4F666D7D077F6FFF7C395E7971AC
:0C0222007638373E735C0040FEFDFBF7B1
:09023A00040E17171717010D003F
:10019300E50D14601714602114603A24037051E5CF
:1001A3000E90021293F58090022A8018E50F9002B8
:1001B3001293F58090022B800BE51090021293F5B9
:1001C3008090022CE493F5907F017E001201F4E409
:1001D300F580050D22E51190021293F58090022D12
:1001E300E493F5907F017E001201F4E4F580F50DB0
:0101F30022E9
:03000000020107F3
:0C010700787FE4F6D8FD75811302014EEC
:10011300020003E493A3F8E493A34003F68001F2FF
:1001230008DFF48029E493A3F85407240CC8C333ED
:10013300C4540F4420C8834004F456800146F6DFBC
:10014300E4800B010204081020408090022EE47E1C
:10015300019360BCA3FF543F30E509541FFEE493B1
:10016300A360010ECF54C025E060A840B8E493A378
:10017300FAE493A3F8E493A3C8C582C8CAC583CAA3
:10018300F0A3C8C582C8CAC583CADFE9DEE780BE5B
:0102430000BA
:00000001FF
