:100F1F00D3EF9400EE940040147D7C7C00ED1D70A7
:0D0F2F00011CED4C70F7EF1F70E61E80E313
:010F3C002292
:100CF900E4F515D2B0D2B1D2B2D2B330B00930B125
:100D09000630B20320B3377F0A7E00120F1F30B0BE
:100D19000930B10630B20320B31820B003751501AC
:100D290020B10375150220B20375150320B30375AD
:100D3900150430B0FD30B1FA30B2F730B3F4AF1565
:010D49002287
:100E83004380F0C2A6D2A5D2A7E58054F0FFC2A743
:100E9300D2A7E58054F0C4540F4207C2A7051CE54E
:0A0EA3001CD394325004EF20E7DD69
:010EAD002222
:100ED6008F1CC2A6C2A5851C80D2A77F017E0012E8
:100EE6000F1FC2A7E51CC454F0F580D2A77F017E70
:070EF60000120F1FC2A7222A
:100DFC008F1B120E83120E83D2A6C2A5851B80D226
:100E0C00A77F017E00120F1FC2A7E51BC454F0F58B
:0D0E1C0080D2A77F017E00120F1FC2A72207
:100F3D007F33120ED67F32120ED67F28120ED67F39
:0E0F4D000C120ED67F06120ED67F01020ED6B3
:100F74008F1BED7004E51B8004E51B24404480FFB7
:040F8400120ED62251
:100EAE008B158A168917120F74AB15AA16A917126D
:100EBE00080060130517E5177002051614F91208DD
:080ECE0000FF120DFC80E2227E
:060D4A008F458D468B472A
:100D5000E4F54BE54775F008A42440254BFF120E3F
:100D6000D6AB48AA49A94A854B8275830012081957
:100D7000FF120DFC054BE54BC3940840D6AD46AFC2
:090D800045120F74AF47020DFC8F
:0A091B008E088F098B0A8A0B890CE5
:10092500C3E50864809480501CC3E49509F509E487
:100935009508F508050CE50C7002050B14F9742DE6
:10094500120846050EAE08AF097C007D0A1208584C
:10095500ED2430FFAE0D050D740F2EF8A607AE0879
:10096500AF097C007D0A1208588E088F09D3E50966
:100975009400E5086480948050CBE50D250EF50EB6
:10098500AF0D150DEFD39400401B740F250DF8E640
:10099500FFAB0A050CE50CAA0B7002050B14F9EF69
:1009A50012084680DBAB0AAA0BA90CE4120846AF75
:0109B5000E33
:0109B600221E
:100ACB0054686520444153206F662054454D5000B7
:100ADB0056312E30004348303A004348313A0043F8
:100AEB0048323A004348333A004348343A004348CB
:100AFB00353A004348363A004348373A00434838C2
:100B0B003A004348393A004348613A004348623A55
:100B1B00004348633A004348643A004348653A004F
:100B2B004348663A00202020414C41524D204D4510
:030B3B004E550014
:100F5B007BFF7A0A79CBE4FDFF120EAE7BFF7A0A98
:090F6B0079DB7D017F06020EAE68
:100C8B007BFF7A0A79E0E4FDFF120EAE7B007A005F
:100C9B007925E4F51AFD7F04120A477BFF7A0A795E
:100CAB00E57D01E4FF120EAE7B007A007925751A03
:100CBB0001120A437BFF7A0A79EAE4FD7F08120EE0
:100CCB00AE7B007A007925751A02E4FD7F0C120ABF
:100CDB00477BFF7A0A79EF7D017F08120EAE7B000E
:0E0CEB007A007925751A037D017F0C020A47F5
:100B3E007BFF7A0A79F4E4FDFF120EAE7B007A0099
:100B4E007925751A04E4FD7F04120A477BFF7A0AA1
:100B5E0079F97D01E4FF120EAE7B007A00792575DE
:100B6E001A05120A437BFF7A0A79FEE4FD7F08120A
:100B7E000EAE7B007A007925751A06E4FD7F0C1205
:100B8E000A477BFF7A0B79037D017F08120EAE7B3D
:0F0B9E00007A007925751A077D017F0C020A473E
:100BAD007BFF7A0B7908E4FDFF120EAE7B007A0015
:100BBD007925751A08E4FD7F04120A477BFF7A0B2D
:100BCD00790D7D01E4FF120EAE7B007A007925755B
:100BDD001A09120A437BFF7A0B7912E4FD7F081282
:100BED000EAE7B007A007925751A0AE4FD7F0C1292
:100BFD000A477BFF7A0B79177D017F08120EAE7BBA
:0F0C0D00007A007925751A0B7D017F0C020A47CA
:100C1C007BFF7A0B791CE4FDFF120EAE7B007A0091
:100C2C007925751A0CE4FD7F04120A477BFF7A0BB9
:100C3C0079217D01E4FF120EAE7B007A00792575D7
:100C4C001A0D120A437BFF7A0B7926E4FD7F0812FA
:100C5C000EAE7B007A007925751A0EE4FD7F0C121E
:100C6C000A477BFF7A0B792B7D017F08120EAE7B36
:0F0C7C00007A007925751A0F7D017F0C020A4757
:0C0F9B007BFF7A0B7930E4FDFF020EAE04
:040A43007D017F04AE
:100A47008B178A188919120F74AB17AA18A9197569
:100A5700F002E51AA4F58285F08312088EFFAEF046
:100A67007C007D64120858EF2430FF120DFCAB1791
:100A7700AA18A91975F002E51AA4F58285F0831260
:100A8700088EFFAEF07C007D0A1208587C007D0AB4
:100A9700120858ED2430FF120DFC7F2E120DFCAB0F
:100AA70017AA18A91975F002E51AA4F58285F0832B
:100AB70012088EFFAEF07C007D0A120858ED243034
:040AC700FF020DFC21
:100E5600202025007D007E007F008000DF00E0006E
:100E6600E100E2014E014F0150015101A501A60129
:0C0E7600A701A8012300C1000221000018
:100D8900120F3D7F0A7E00120F1F120F5B7FD07E6C
:100D990007120F1F120F887F01120ED6200014D2DE
:100DA9008CE524B4010DE4F5240523E523B40403FB
:0B0DB900E4F523120DC4120EFD80E1D2
:100F88005389F0438901758A66758CFCC28DD2A994
:030F9800D2AF22B3
:03000B00020E29B9
:100E2900C0E0C0D0C28C0522E52270020521C3941E
:100E390088E5219413400975210075220075240164
:0D0E4900758A66758CFCD28CD0D0D0E0325A
:100DC400120CF9EF24FE600D14601814601D240346
:100DD4007025B2002230001FC28C0523E523B40421
:100DE400168004D200C28CE4F52322D200C28C7592
:080DF40023047F01120ED62238
:100EFD00E5231460101460101460101460102404A5
:100F0D00700F020C8B020B3E020BAD020C1C120F6C
:020F1D009B2215
:030000000209B73B
:0C09B700787FE4F6D8FD75814B0209FE44
:10080000BB010689828A83E0225002E722BBFE02F6
:09081000E32289828A83E4932229
:10081900BB010CE58229F582E5833AF583E0225094
:1008290006E92582F8E622BBFE06E92582F8E222DE
:0D083900E58229F582E5833AF583E49322F8
:10084600BB010689828A83F0225002F722BBFE0191
:02085600F3228B
:10085800C2D5EC30E709B2D5E4C39DFDE49CFCEEBB
:1008680030E715B2D5E4C39FFFE49EFE1208C6C365
:10087800E49DFDE49CFC80031208C630D507C3E460
:060888009FFFE49EFE222A
:10088E00BB0110E58229F582E5833AF583E0F5F0A8
:10089E00A3E0225009E92582F886F008E622BBFE85
:1008AE000AE92582F8E2F5F008E222E5832AF583CB
:0808BE00E993F5F0A3E9932290
:1009C300020D89E493A3F8E493A34003F68001F2B4
:1009D30008DFF48029E493A3F85407240CC8C33335
:1009E300C4540F4420C8834004F456800146F6DF04
:1009F300E4800B0102040810204080900E56E47E30
:100A0300019360BCA3FF543F30E509541FFEE493F8
:100A1300A360010ECF54C025E060A840B8E493A3BF
:100A2300FAE493A3F8E493A3C8C582C8CAC583CAEA
:100A3300F0A3C8C582C8CAC583CADFE9DEE780BEA2
:010E8200006F
:1008C600BC000BBE0029EF8DF084FFADF022E4CC16
:1008D600F875F008EF2FFFEE33FEEC33FCEE9DECDF
:1008E600984005FCEE9DFE0FD5F0E9E4CEFD22ED25
:1008F600F8F5F0EE8420D21CFEADF075F008EF2F6F
:10090600FFED33FD4007985006D5F0F222C398FD5F
:050916000FD5F0EA22FC
:00000001FF
