:04022300020D0000C8
:1002130012000612000BD2AF1201581200A280F88E
:10015800AE0DAF0E7C037DE81201038F09AE0DAF23
:100168000E7C007D641201037C007D0A1201038D60
:100178000AAE0DAF0E7C007D0A1201037C007D0AD9
:100188001201038D0BAE0DAF0E7C007D0A12010328
:030198008D0C22A9
:05000600D288D2A822FF
:05000B00D28AD2AA22F6
:0300030002019B5C
:10019B00C0E0C0D0050EE50E7002050DD3940FE53F
:1001AB000D94274006750D00750E00D0D0D0E032AF
:030013000201BB2C
:1001BB00C0E0C0D0E50E150E7002150DC3E50D9411
:0E01CB00005006750D27750E0FD0D0D0E03213
:1001D900D3EF9400EE940040147D7C7C00ED1D70FB
:0D01E900011CED4C70F7EF1F70E61E80E367
:0101F60022E6
:1001F7003F065B4F666D7D077F6FFF7C395E7971C8
:0C0207007638373E735C0040F7FBFDFECC
:090227000409171717170108005C
:1000A200E50814601714602114603A24037051E5C6
:1000B200099001F793F59090020F8018E50A9001DC
:1000C200F793F590900210800BE50B9001F793F5F2
:1000D20090900211E493F5A07F017E001201D9E411
:1000E200F590050822E50C9001F793F59090021225
:1000F200E493F5A07F017E001201D9E4F590F508A2
:0101020022DA
:03000000020016E5
:0C001600787FE4F6D8FD75810E02005DD5
:10010300BC000BBE0029EF8DF084FFADF022E4CCE0
:10011300F875F008EF2FFFEE33FEEC33FCEE9DECA9
:10012300984005FCEE9DFE0FD5F0E9E4CEFD22EDEF
:10013300F8F5F0EE8420D21CFEADF075F008EF2F39
:10014300FFED33FD4007985006D5F0F222C398FD2A
:050153000FD5F0EA22C7
:10002200020213E493A3F8E493A34003F68001F2DF
:1000320008DFF48029E493A3F85407240CC8C333DF
:10004200C4540F4420C8834004F456800146F6DFAE
:10005200E4800B0102040810204080900223E47E19
:10006200019360BCA3FF543F30E509541FFEE493A3
:10007200A360010ECF54C025E060A840B8E493A36A
:10008200FAE493A3F8E493A3C8C582C8CAC583CA95
:10009200F0A3C8C582C8CAC583CADFE9DEE780BE4D
:0102300000CD
:00000001FF
