:100C98005761697420666F722053657269616C20B0
:100CA800436F6D6D756E69636174696F6E2054650D
:100CB80073742053746172742E0D0A00506C656150
:100CC80073652053656E64206120636F6D6D616E7E
:050CD800643A0D0A0062
:100CDD00120DD1120DE7D2AF7BFF7A0C7998120865
:100CED00627BFF7A0C79C4120862E52360FCE4F59F
:100CFD0023F524FB7A007925120D727B007A007999
:060D0D0025120DB580E483
:100DE7005389F0438901758A66758CFCC28DD2A937
:030DF700D28C2279
:03000B00020D489B
:100D4800C0E0C0D0C28CE524B40112053AE53AD31C
:100D580094034009753A00753900752301758A6650
:0A0D6800758CFCD28CD0D0D0E032A4
:100D9700D3EF9400EE940040147D7C7C00ED1D7031
:0D0DA700011CED4C70F7EF1F70E61E80E39D
:010DB400221C
:090DFA0001240001230001220084
:100DD10075985053890F438920758BFD758DFDC220
:060DE100ABD28ED2AC2261
:080E04008F993099FDC299227B
:100D72008B088A09890AAB08AA09A90A120B5C60C6
:100D820013050AE50A7002050914F9120B5CFF1239
:050D92000E0480E222C6
:060E0C00AE07120E0422E5
:060DB5008B088A09890A7F
:100DBB00E4FFAB08AA09A90A8F82758300E4120B22
:050DCB00750FBF14EDDF
:010DD0002200
:03002300020D13B8
:090D1300C0E0C0D075D000C000A2
:100D1C0030981DC298752401E522C39414500B74AD
:100D2C00252522F8A69905228003752214753A0010
:050D3C00309902C2998C
:070D4100D000D0D0D0E03259
:03000000020C0CE3
:0C0C0C00787FE4F6D8FD75813A020C53A5
:100B5C00BB010689828A83E0225002E722BBFE0297
:090B6C00E32289828A83E49322CA
:100B7500F8BB010DE58229F582E5833AF583E8F0B6
:100B8500225006E92582C8F622BBFE05E92582C862
:020B9500F2224A
:10080000E517240BF8E60517227808300702780B65
:10081000E475F001120BD6020B5C2000EB7F2ED2A8
:10082000008018EF540F2490D43440D4FF30040BD0
:10083000EF24BFB41A0050032461FFE518600215CD
:1008400018051BE51B7002051A30070D7808E475C2
:10085000F001120BD6EF020BC4020E0C7403D20788
:100860008003E4C207F5178B088A09890AE4F518A2
:10087000F51AF51BE51860077F2012083B80F57517
:1008800019FFC201C200C202C203C205C206C208E9
:10089000120809FF700D3007057F0012084CAF1BCE
:1008A000AE1A22B4255FC2D5C204120809FF24D0B3
:1008B000B40A00501A75F00A781830D50508B6FF4A
:1008C0000106C6A426F620D5047002D20380D924DE
:1008D000CFB41A00EF5004C2E5D204020A4CD20190
:1008E00080C6D20080C0D20280BCD2D580BAD205E8
:1008F00080B47F2012083B2002077401B518004025
:10090000F1120800FF12083B020874D208D20680D8
:1009100095120800FB120800FA120800F94A4B7001
:1009200006791D7A0B7BFF20022EE518602A7E00D7
:100930008E82758300120B9760060EEE651970F0BB
:10094000C2D5EBC0E0EAC0E0E9C0E0EE120A93D005
:10095000E0F9D0E0FAD0E0FB120B5CFF60AAEBC03C
:10096000E0EAC0E0E9C0E012083BD0E02401F9D0A1
:10097000E03400FAD0E0FBE5190460DCD519D98039
:10098000877BFF7A0A798FD202809C791080027966
:1009900008C206C2088008D2D5790A8004790AC242
:1009A000D5E519047002F519E4FAFDFEFF120800FE
:1009B000FC7B08200113120800FD7B1030000A1296
:1009C0000800FE120800FF7B20EC3382D592D55040
:1009D00013C3E43000069FFFE49EFEE42001039D64
:1009E000FDE49CFCE4CBF8C201EC700CCFCECDCC86
:1009F000E824F8F870F38017C3EF33FFEE33FEED11
:100A000033FDEC33FCEB33FB994002FB0FD8E9EBF1
:100A1000300105F8D0E0C448B201C0E00AEC4D4E08
:100A20004F78207B0070C2EAB5190040BCC0E012CC
:100A30000A95D0F0D0E0200104C4C0E0C4B201C0E7
:100A4000F0120824D0F0D5F0EB020874120BE6097E
:100A50001153098B5808E24C08DE42098F4F099761
:0F0A60004409974908F743099D550981460981C3
:100A6F00450981470B3D5008E62D08EA2E090D2B4D
:100A7F0008EE23090B200B262A08A64800000905BB
:100A8F003F3F3F00790AA2D5200314300509B91062
:100A9F00020404B9080104A2D52006025001042063
:100AAF0002689202B518005034C0E07F203003195D
:100ABF007F30A20272067205500F120AECC202C2F8
:100ACF0006C205C2087F30800F300503E9C0E0126F
:100ADF00083B300503D0E0F9D0E0B518CC3005174E
:100AEF007F30B9100C12083B7F583004077F788095
:100AFF0003B9080312083B3002057F2D02083B7F24
:100B0F00202008F87F2B2006F322920280CF286E38
:100B1F00756C6C2900D2011208003001F8C20178FF
:100B2F001830D50108F60208A62D5043495812086F
:100B3F00002403B405004001E4900B389312082CF5
:0D0B4F00743A12082CD20375180402098BA9
:100C1800020CDDE493A3F8E493A34003F68001F209
:100C280008DFF48029E493A3F85407240CC8C333DD
:100C3800C4540F4420C8834004F456800146F6DFAC
:100C4800E4800B0102040810204080900DFAE47E35
:100C5800019360BCA3FF543F30E509541FFEE493A1
:100C6800A360010ECF54C025E060A840B8E493A368
:100C7800FAE493A3F8E493A3C8C582C8CAC583CA93
:100C8800F0A3C8C582C8CAC583CADFE9DEE780BE4B
:010E030000EE
:100B9700BB010CE58229F582E5833AF583E0225013
:100BA70006E92582F8E622BBFE06E92582F8E2225D
:0D0BB700E58229F582E5833AF583E4932277
:100BC400BB010689828A83F0225002F722BBFE0110
:020BD400F3220A
:100BD600FAE6FB0808E6F925F0F618E6CA3AF62220
:100BE600D083D082F8E4937012740193700DA3A39E
:100BF60093F8740193F5828883E4737402936860B2
:060C0600EFA3A3A380DFB1
:00000001FF
