:04029F00020C00004D
:10027F0012028F12000612000ED2AF1200A280FBE4
:1000A200AE0CAF0D7C037DE812017F8F08AE0CAF62
:1000B2000D7C007D6412017F7C007D0A12017F8D20
:1000C20009AE0CAF0D7C007D0A12017F7C007D0A17
:1000D20012017F8D0AAE0CAF0D7C007D0A12017FEA
:1000E2008D0BC3E50D94E8E50C94035005750F16CE
:1000F200800385080FC3E50D9464E50C9400500558
:100102007510168003850910C3E50D940AE50C9459
:0F0112000050057511168003850A11850B122206
:10028F005389F0758A66758CFCC28DD28CD2A922E7
:05000600D288D2A822FF
:05000E00D28AD2AA22F3
:03000B000201D41B
:1001D400C0E0C0F0C083C082C0D075D000C000C0F1
:1001E40001C002C003C004C005C006C007C28C120F
:1001F4000121758A66758CFCD28CD007D006D00597
:10020400D004D003D002D001D000D0D0D082D0838B
:05021400D0F0D0E03243
:0300030002023FB7
:10023F00C0E0C0D0C2A8050DE50D7002050CD39427
:10024F000FE50C94274006750C00750D00D2A8D051
:04025F00D0D0E032E9
:03001300020219CD
:10021900C0E0C0D0C2AAE50D150D7002150CD3E5DA
:100229000D9410E50C94274006750C27750D0FD217
:06023900AAD0D0D0E03293
:100263003F065B4F666D7D077F6FFF7C395E79715B
:0C0273007638373E735C0040F7FBFDFE60
:0902A300040F00000000010E0030
:10012100E50E14601E14602B14603D2403704EE430
:10013100F59090027B93F5A0E50F90026393F59003
:10014100050E22E4F590E51090026393F59090027C
:100151007C800EE4F590E51190026393F590900296
:100161007DE493F5A0050E22E4F590E5129002637B
:0D01710093F59090027EE493F5A0E4F50E66
:01017E00225E
:03000000020016E5
:0C001600787FE4F6D8FD75811202005DD1
:10017F00BC000BBE0029EF8DF084FFADF022E4CC64
:10018F00F875F008EF2FFFEE33FEEC33FCEE9DEC2D
:10019F00984005FCEE9DFE0FD5F0E9E4CEFD22ED73
:1001AF00F8F5F0EE8420D21CFEADF075F008EF2FBD
:1001BF00FFED33FD4007985006D5F0F222C398FDAE
:0501CF000FD5F0EA224B
:1000220002027FE493A3F8E493A34003F68001F273
:1000320008DFF48029E493A3F85407240CC8C333DF
:10004200C4540F4420C8834004F456800146F6DFAE
:10005200E4800B010204081020408090029FE47E9D
:10006200019360BCA3FF543F30E509541FFEE493A3
:10007200A360010ECF54C025E060A840B8E493A36A
:10008200FAE493A3F8E493A3C8C582C8CAC583CA95
:10009200F0A3C8C582C8CAC583CADFE9DEE780BE4D
:0102AC000051
:00000001FF
