:0601FC00010DFE010E3CA6
:1001BB001201D61201E9D2AFE50E75F00A84F50BE8
:0B01CB00E50E75F00A8485F00C80ED55
:1001D6005389F0438901758A18758CFCC28DD28CBF
:0301E600D2A92279
:03000B0002015A95
:10015A00C0E0C0F0C083C082C0D075D000C000C06B
:10016A0001C002C003C004C005C006C007C28C1289
:10017A0000AA758A18758CFCD28CD007D006D005D7
:10018A00D004D003D002D001D000D0D0D082D08306
:05019A00D0F0D0E032BE
:1001E90053890F438910758BB0758D3CC28FD28EA0
:0301F900D2AB2264
:03001B00020108D7
:10010800C0E0C0D075D000C000C007C28E05100581
:100118000FE50FC3940A4013750F00850D90AF0DBE
:100128007801EF08800103D8FDF50DE510C394149C
:10013800400F751000150EE50ED3943C4003750E64
:100148003C758BB0758D3CD28ED007D000D0D0D006
:02015800E03293
:10019F003F065B4F666D7D077F6FFF7C395E797120
:0C01AF007638373E735C0040F7FBFDFE25
:09020200040900000000010800DD
:1000AA00E50814601E14602B14603D2403704EE4AE
:1000BA00F5909001B793F5A0E50990019F93F5900B
:1000CA00050822E4F590E50A90019F93F5909001C6
:1000DA00B8800EE4F590E50B90019F93F59090019E
:1000EA00B9E493F5A0050822E4F590E50C90019F88
:0D00FA0093F5909001BAE493F5A0E4F508A9
:0101070022D5
:0300000002001EDD
:0C001E00787FE4F6D8FD758110020065C3
:10002A000201BBE493A3F8E493A34003F68001F230
:10003A0008DFF48029E493A3F85407240CC8C333D7
:10004A00C4540F4420C8834004F456800146F6DFA6
:10005A00E4800B01020408102040809001FCE47E39
:10006A00019360BCA3FF543F30E509541FFEE4939B
:10007A00A360010ECF54C025E060A840B8E493A362
:10008A00FAE493A3F8E493A3C8C582C8CAC583CA8D
:10009A00F0A3C8C582C8CAC583CADFE9DEE780BE45
:01020B0000F2
:00000001FF
