:100D6900D3EF9400EE940040147D7C7C00ED1D705F
:0D0D7900011CED4C70F7EF1F70E61E80E3CB
:010D8600224A
:080E33007F027E27DEFEDFFCDA
:010E3B002294
:050E4400007F1BDFFE32
:010E49002286
:100DD900120DC1920220020A7FCC120CCC7F441260
:050DE9000CCCA202B3D6
:010DEE0022E2
:060BA2008B4B8A4C894DCB
:100BA800120DC192032003277FCC120CCC7FBE12FA
:100BB8000CCC120C748F4E120C74EFFE7C00E425E2
:100BC8004EFFEC3EAB4BAA4CA94D8FF01208B0A2D9
:020BD80003B365
:010BDA0022F8
:060C14008B3C8A3D893E85
:100C1A00120DC192002000247F33120CCCE4F53F60
:100C2A00120C74AB3CAA3DA93E853F82758300EF46
:0C0C3A00120858053FE53FC3940840E451
:010C4600228B
:100CA1004380F0C2A6D2A5D2A7E58054F0FFC2A727
:100CB100D2A7E58054F0C4540F4207C2A70543E50B
:0A0CC10043D394325004EF20E7DD26
:010CCB002206
:100D1D008F43C2A6C2A5854380D2A77F017E001254
:100D2D000D69C2A7E543C454F0F580D2A77F017EBB
:070D3D0000120D69C2A7229C
:100C47008F42120CA1120CA1D2A6C2A5854280D256
:100C5700A77F017E00120D69C2A7E542C454F0F5D3
:0D0C670080D2A77F017E00120D69C2A72276
:100D87007F33120D1D7F32120D1D7F28120D1D7F1F
:0E0D97000C120D1D7F06120D1D7F01020D1D99
:100E05008F42ED7004E5428004E54224404480FFB2
:040E1500120D1D227B
:100CF5008B4F8A508951120E05AB4FAA50A951123C
:100D0500080060130551E5517002055014F91208E9
:080D150000FF120C4780E222EE
:060B63008F448D458B4616
:100B6900E4F54AE54675F008A42440254AFF120D2C
:100B79001DAB47AA48A949854A82758300120819FD
:100B8900FF120C47054AE54AC3940840D6AD45AF64
:090B990044120E05AF46020C47A0
:0A0924008E088F098B0A8A0B890CDC
:10092E00E4F50DF50EC3E50864809480501CC3E415
:10093E009509F509E49508F508050CE50C70020516
:10094E000B14F9742D120846050EAE08AF097C0083
:10095E007D0A12087AED2430FFAE0D050D740F2EB0
:10096E00F8A607AE08AF097C007D0A12087A8E0839
:10097E008F09D3E5099400E5086480948050CBE597
:10098E000D250EF50EAF0D150DEFD39400401B7413
:10099E000F250DF8E6FFAB0A050CE50CAA0B70024D
:1009AE00050B14F9EF12084680DBAB0AAA0BA90C53
:0609BE00E4120846AF0E32
:0109C4002210
:100E190028FF50B9C017053128FE50B9C017053051
:100BDB00120D87120DEF7F0A7E00120D697B007AD2
:100BEB00007916120C147B007A0079167D01120A1B
:100BFB00EAE4F51574162515F8E6FF120E3C0515FB
:090C0B00E515C3940840ED80FEDC
:080AEA008B3C8A3D893E8D3FE3
:100AF200E4FD7F07120E057F23120C47E53F2430E9
:100B0200FF120C477D01E4FF120E05E4F540AB3CF9
:100B1200AA3DA93E854082758300120819C4540F6C
:100B2200F541C3940AE5415004243080022437FF82
:100B3200120C47AB3CAA3DA93E8540827583001248
:100B42000819540FF541C3940AE54150042430803A
:100B5200022437FF120C470540E540C3940840AE1B
:010B62002270
:100DC100C2AFC2B7120E33D2B7120E44A2B792010C
:070DD10030B7FDD2AFA20113
:010DD80022F8
:020CCC008F4057
:100CCE00C2AF754101E541601BC2B70000554070CF
:100CDE0004C2B78002D2B7120E44D2B7E54125E066
:060CEE00F54180E1D2AFE8
:010CF40022DD
:100C7400C2AF754101E541601FC2B70000D2B700A1
:100C84000020B705F452408004E5414240120E446E
:0C0C9400E54125E0F54180DDD2AFAF4026
:010CA0002231
:090E2900012500013B0001240039
:100DEF0075985053890F438920758BFD758DFDC202
:060DFF00ABD28ED2AC2243
:080E3C008F993099FDC2992243
:100D44008B528A538954AB52AA53A9541208006097
:100D5400130554E5547002055314F9120800FF12E8
:050D64000E3C80E222BC
:060E4A00AE07120E3C226F
:060DA5008B558A568957A8
:100DAB00E4FFAB55AA56A9578F82758300E412084E
:050DBB00580FBF14ED0C
:010DC0002210
:030023000209C50A
:0909C500C0E0C0D075D000C000F4
:1009CE00209803020A52C298859921E53B146019BA
:1009DE0014602514604614605224047067E521B437
:1009EE005505753B01805D803DE521B4AA08753B38
:1009FE0002752400804E802EE5212522F522E52168
:100A0E00622374262524F8A6210524E524D3940216
:100A1E004005753B03802D753B028028E522B521EC
:100A2E0005753B04801E753B008019E523B5210535
:100A3E007525018003753B00753B007524007522FA
:090A4E0000752300309902C299E1
:070A5700D000D0D0D0E03246
:03000000020A5E93
:0C0A5E00787FE4F6D8FD758157020AA5E8
:10080000BB010689828A83E0225002E722BBFE02F6
:09081000E32289828A83E4932229
:10081900BB010CE58229F582E5833AF583E0225094
:1008290006E92582F8E622BBFE06E92582F8E222DE
:0D083900E58229F582E5833AF583E49322F8
:10084600BB010689828A83F0225002F722BBFE0191
:02085600F3228B
:10085800F8BB010DE58229F582E5833AF583E8F0D6
:10086800225006E92582C8F622BBFE05E92582C882
:02087800F2226A
:10087A00C2D5EC30E709B2D5E4C39DFDE49CFCEE99
:10088A0030E715B2D5E4C39FFFE49EFE1208CFC33A
:10089A00E49DFDE49CFC80031208CF30D507C3E435
:0608AA009FFFE49EFE2208
:1008B000BB010A89828A83F0E5F0A3F0225006F793
:0F08C00009A7F01922BBFE06F3E5F009F3192290
:100A6A00020BDBE493A3F8E493A34003F68001F2BC
:100A7A0008DFF48029E493A3F85407240CC8C3338D
:100A8A00C4540F4420C8834004F456800146F6DF5C
:100A9A00E4800B0102040810204080900E29E47EB5
:100AAA00019360BCA3FF543F30E509541FFEE49351
:100ABA00A360010ECF54C025E060A840B8E493A318
:100ACA00FAE493A3F8E493A3C8C582C8CAC583CA43
:100ADA00F0A3C8C582C8CAC583CADFE9DEE780BEFB
:010E320000BF
:1008CF00BC000BBE0029EF8DF084FFADF022E4CC0D
:1008DF00F875F008EF2FFFEE33FEEC33FCEE9DECD6
:1008EF00984005FCEE9DFE0FD5F0E9E4CEFD22ED1C
:1008FF00F8F5F0EE8420D21CFEADF075F008EF2F66
:10090F00FFED33FD4007985006D5F0F222C398FD56
:05091F000FD5F0EA22F3
:00000001FF
